{
	"data": {
		"bytecode": {
			"linkReferences": {},
			"object": "6080604052348015600e575f5ffd5b50610a378061001c5f395ff3fe608060405234801561000f575f5ffd5b5060043610610055575f3560e01c80632e64cec1146100595780632ebce631146100775780633bc862c7146100a857806357322f09146100c45780638bab8dd5146100e0575b5f5ffd5b610061610110565b60405161006e9190610347565b60405180910390f35b610091600480360381019061008c91906103a4565b610124565b60405161009f92919061043f565b60405180910390f35b6100c260048036038101906100bd9190610497565b6101e5565b005b6100de60048036038101906100d99190610523565b610201565b005b6100fa60048036038101906100f591906106a8565b6102f7565b6040516101079190610347565b60405180910390f35b5f5f5f9054906101000a900460ff16905090565b60018181548110610133575f80fd5b905f5260205f2090600202015f91509050805f0180546101529061071c565b80601f016020809104026020016040519081016040528092919081815260200182805461017e9061071c565b80156101c95780601f106101a0576101008083540402835291602001916101c9565b820191905f5260205f20905b8154815290600101906020018083116101ac57829003601f168201915b505050505090806001015f9054906101000a900460ff16905082565b805f5f6101000a81548160ff021916908360ff16021790555050565b6001604051806040016040528085858080601f0160208091040260200160405190810160405280939291908181526020018383808284375f81840152601f19601f8201169050808301925050505050505081526020018360ff16815250908060018154018082558091505060019003905f5260205f2090600202015f909190919091505f820151815f01908161029791906108ec565b506020820151816001015f6101000a81548160ff021916908360ff160217905550505080600284846040516102cd9291906109e9565b90815260200160405180910390205f6101000a81548160ff021916908360ff160217905550505050565b6002818051602081018201805184825260208301602085012081835280955050505050505f915054906101000a900460ff1681565b5f60ff82169050919050565b6103418161032c565b82525050565b5f60208201905061035a5f830184610338565b92915050565b5f604051905090565b5f5ffd5b5f5ffd5b5f819050919050565b61038381610371565b811461038d575f5ffd5b50565b5f8135905061039e8161037a565b92915050565b5f602082840312156103b9576103b8610369565b5b5f6103c684828501610390565b91505092915050565b5f81519050919050565b5f82825260208201905092915050565b8281835e5f83830152505050565b5f601f19601f8301169050919050565b5f610411826103cf565b61041b81856103d9565b935061042b8185602086016103e9565b610434816103f7565b840191505092915050565b5f6040820190508181035f8301526104578185610407565b90506104666020830184610338565b9392505050565b6104768161032c565b8114610480575f5ffd5b50565b5f813590506104918161046d565b92915050565b5f602082840312156104ac576104ab610369565b5b5f6104b984828501610483565b91505092915050565b5f5ffd5b5f5ffd5b5f5ffd5b5f5f83601f8401126104e3576104e26104c2565b5b8235905067ffffffffffffffff811115610500576104ff6104c6565b5b60208301915083600182028301111561051c5761051b6104ca565b5b9250929050565b5f5f5f6040848603121561053a57610539610369565b5b5f84013567ffffffffffffffff8111156105575761055661036d565b5b610563868287016104ce565b9350935050602061057686828701610483565b9150509250925092565b5f5ffd5b7f4e487b71000000000000000000000000000000000000000000000000000000005f52604160045260245ffd5b6105ba826103f7565b810181811067ffffffffffffffff821117156105d9576105d8610584565b5b80604052505050565b5f6105eb610360565b90506105f782826105b1565b919050565b5f67ffffffffffffffff82111561061657610615610584565b5b61061f826103f7565b9050602081019050919050565b828183375f83830152505050565b5f61064c610647846105fc565b6105e2565b90508281526020810184848401111561066857610667610580565b5b61067384828561062c565b509392505050565b5f82601f83011261068f5761068e6104c2565b5b813561069f84826020860161063a565b91505092915050565b5f602082840312156106bd576106bc610369565b5b5f82013567ffffffffffffffff8111156106da576106d961036d565b5b6106e68482850161067b565b91505092915050565b7f4e487b71000000000000000000000000000000000000000000000000000000005f52602260045260245ffd5b5f600282049050600182168061073357607f821691505b602082108103610746576107456106ef565b5b50919050565b5f819050815f5260205f209050919050565b5f6020601f8301049050919050565b5f82821b905092915050565b5f600883026107a87fffffffffffffffffffffffffffffffffffffffffffffffffffffffffffffffff8261076d565b6107b2868361076d565b95508019841693508086168417925050509392505050565b5f819050919050565b5f6107ed6107e86107e384610371565b6107ca565b610371565b9050919050565b5f819050919050565b610806836107d3565b61081a610812826107f4565b848454610779565b825550505050565b5f5f905090565b610831610822565b61083c8184846107fd565b505050565b5b8181101561085f576108545f82610829565b600181019050610842565b5050565b601f8211156108a4576108758161074c565b61087e8461075e565b8101602085101561088d578190505b6108a16108998561075e565b830182610841565b50505b505050565b5f82821c905092915050565b5f6108c45f19846008026108a9565b1980831691505092915050565b5f6108dc83836108b5565b9150826002028217905092915050565b6108f5826103cf565b67ffffffffffffffff81111561090e5761090d610584565b5b610918825461071c565b610923828285610863565b5f60209050601f831160018114610954575f8415610942578287015190505b61094c85826108d1565b8655506109b3565b601f1984166109628661074c565b5f5b8281101561098957848901518255600182019150602085019450602081019050610964565b868310156109a657848901516109a2601f8916826108b5565b8355505b6001600288020188555050505b505050505050565b5f81905092915050565b5f6109d083856109bb565b93506109dd83858461062c565b82840190509392505050565b5f6109f58284866109c5565b9150819050939250505056fea2646970667358221220ebd37f00ba9062878c2f80bc4a4198d9ffea5a4bdba861e47e65c63d951f294364736f6c634300081e0033",
			"opcodes": "PUSH1 0x80 PUSH1 0x40 MSTORE CALLVALUE DUP1 ISZERO PUSH1 0xE JUMPI PUSH0 PUSH0 REVERT JUMPDEST POP PUSH2 0xA37 DUP1 PUSH2 0x1C PUSH0 CODECOPY PUSH0 RETURN INVALID PUSH1 0x80 PUSH1 0x40 MSTORE CALLVALUE DUP1 ISZERO PUSH2 0xF JUMPI PUSH0 PUSH0 REVERT JUMPDEST POP PUSH1 0x4 CALLDATASIZE LT PUSH2 0x55 JUMPI PUSH0 CALLDATALOAD PUSH1 0xE0 SHR DUP1 PUSH4 0x2E64CEC1 EQ PUSH2 0x59 JUMPI DUP1 PUSH4 0x2EBCE631 EQ PUSH2 0x77 JUMPI DUP1 PUSH4 0x3BC862C7 EQ PUSH2 0xA8 JUMPI DUP1 PUSH4 0x57322F09 EQ PUSH2 0xC4 JUMPI DUP1 PUSH4 0x8BAB8DD5 EQ PUSH2 0xE0 JUMPI JUMPDEST PUSH0 PUSH0 REVERT JUMPDEST PUSH2 0x61 PUSH2 0x110 JUMP JUMPDEST PUSH1 0x40 MLOAD PUSH2 0x6E SWAP2 SWAP1 PUSH2 0x347 JUMP JUMPDEST PUSH1 0x40 MLOAD DUP1 SWAP2 SUB SWAP1 RETURN JUMPDEST PUSH2 0x91 PUSH1 0x4 DUP1 CALLDATASIZE SUB DUP2 ADD SWAP1 PUSH2 0x8C SWAP2 SWAP1 PUSH2 0x3A4 JUMP JUMPDEST PUSH2 0x124 JUMP JUMPDEST PUSH1 0x40 MLOAD PUSH2 0x9F SWAP3 SWAP2 SWAP1 PUSH2 0x43F JUMP JUMPDEST PUSH1 0x40 MLOAD DUP1 SWAP2 SUB SWAP1 RETURN JUMPDEST PUSH2 0xC2 PUSH1 0x4 DUP1 CALLDATASIZE SUB DUP2 ADD SWAP1 PUSH2 0xBD SWAP2 SWAP1 PUSH2 0x497 JUMP JUMPDEST PUSH2 0x1E5 JUMP JUMPDEST STOP JUMPDEST PUSH2 0xDE PUSH1 0x4 DUP1 CALLDATASIZE SUB DUP2 ADD SWAP1 PUSH2 0xD9 SWAP2 SWAP1 PUSH2 0x523 JUMP JUMPDEST PUSH2 0x201 JUMP JUMPDEST STOP JUMPDEST PUSH2 0xFA PUSH1 0x4 DUP1 CALLDATASIZE SUB DUP2 ADD SWAP1 PUSH2 0xF5 SWAP2 SWAP1 PUSH2 0x6A8 JUMP JUMPDEST PUSH2 0x2F7 JUMP JUMPDEST PUSH1 0x40 MLOAD PUSH2 0x107 SWAP2 SWAP1 PUSH2 0x347 JUMP JUMPDEST PUSH1 0x40 MLOAD DUP1 SWAP2 SUB SWAP1 RETURN JUMPDEST PUSH0 PUSH0 PUSH0 SWAP1 SLOAD SWAP1 PUSH2 0x100 EXP SWAP1 DIV PUSH1 0xFF AND SWAP1 POP SWAP1 JUMP JUMPDEST PUSH1 0x1 DUP2 DUP2 SLOAD DUP2 LT PUSH2 0x133 JUMPI PUSH0 DUP1 REVERT JUMPDEST SWAP1 PUSH0 MSTORE PUSH1 0x20 PUSH0 KECCAK256 SWAP1 PUSH1 0x2 MUL ADD PUSH0 SWAP2 POP SWAP1 POP DUP1 PUSH0 ADD DUP1 SLOAD PUSH2 0x152 SWAP1 PUSH2 0x71C JUMP JUMPDEST DUP1 PUSH1 0x1F ADD PUSH1 0x20 DUP1 SWAP2 DIV MUL PUSH1 0x20 ADD PUSH1 0x40 MLOAD SWAP1 DUP2 ADD PUSH1 0x40 MSTORE DUP1 SWAP3 SWAP2 SWAP1 DUP2 DUP2 MSTORE PUSH1 0x20 ADD DUP3 DUP1 SLOAD PUSH2 0x17E SWAP1 PUSH2 0x71C JUMP JUMPDEST DUP1 ISZERO PUSH2 0x1C9 JUMPI DUP1 PUSH1 0x1F LT PUSH2 0x1A0 JUMPI PUSH2 0x100 DUP1 DUP4 SLOAD DIV MUL DUP4 MSTORE SWAP2 PUSH1 0x20 ADD SWAP2 PUSH2 0x1C9 JUMP JUMPDEST DUP3 ADD SWAP2 SWAP1 PUSH0 MSTORE PUSH1 0x20 PUSH0 KECCAK256 SWAP1 JUMPDEST DUP2 SLOAD DUP2 MSTORE SWAP1 PUSH1 0x1 ADD SWAP1 PUSH1 0x20 ADD DUP1 DUP4 GT PUSH2 0x1AC JUMPI DUP3 SWAP1 SUB PUSH1 0x1F AND DUP3 ADD SWAP2 JUMPDEST POP POP POP POP POP SWAP1 DUP1 PUSH1 0x1 ADD PUSH0 SWAP1 SLOAD SWAP1 PUSH2 0x100 EXP SWAP1 DIV PUSH1 0xFF AND SWAP1 POP DUP3 JUMP JUMPDEST DUP1 PUSH0 PUSH0 PUSH2 0x100 EXP DUP2 SLOAD DUP2 PUSH1 0xFF MUL NOT AND SWAP1 DUP4 PUSH1 0xFF AND MUL OR SWAP1 SSTORE POP POP JUMP JUMPDEST PUSH1 0x1 PUSH1 0x40 MLOAD DUP1 PUSH1 0x40 ADD PUSH1 0x40 MSTORE DUP1 DUP6 DUP6 DUP1 DUP1 PUSH1 0x1F ADD PUSH1 0x20 DUP1 SWAP2 DIV MUL PUSH1 0x20 ADD PUSH1 0x40 MLOAD SWAP1 DUP2 ADD PUSH1 0x40 MSTORE DUP1 SWAP4 SWAP3 SWAP2 SWAP1 DUP2 DUP2 MSTORE PUSH1 0x20 ADD DUP4 DUP4 DUP1 DUP3 DUP5 CALLDATACOPY PUSH0 DUP2 DUP5 ADD MSTORE PUSH1 0x1F NOT PUSH1 0x1F DUP3 ADD AND SWAP1 POP DUP1 DUP4 ADD SWAP3 POP POP POP POP POP POP POP DUP2 MSTORE PUSH1 0x20 ADD DUP4 PUSH1 0xFF AND DUP2 MSTORE POP SWAP1 DUP1 PUSH1 0x1 DUP2 SLOAD ADD DUP1 DUP3 SSTORE DUP1 SWAP2 POP POP PUSH1 0x1 SWAP1 SUB SWAP1 PUSH0 MSTORE PUSH1 0x20 PUSH0 KECCAK256 SWAP1 PUSH1 0x2 MUL ADD PUSH0 SWAP1 SWAP2 SWAP1 SWAP2 SWAP1 SWAP2 POP PUSH0 DUP3 ADD MLOAD DUP2 PUSH0 ADD SWAP1 DUP2 PUSH2 0x297 SWAP2 SWAP1 PUSH2 0x8EC JUMP JUMPDEST POP PUSH1 0x20 DUP3 ADD MLOAD DUP2 PUSH1 0x1 ADD PUSH0 PUSH2 0x100 EXP DUP2 SLOAD DUP2 PUSH1 0xFF MUL NOT AND SWAP1 DUP4 PUSH1 0xFF AND MUL OR SWAP1 SSTORE POP POP POP DUP1 PUSH1 0x2 DUP5 DUP5 PUSH1 0x40 MLOAD PUSH2 0x2CD SWAP3 SWAP2 SWAP1 PUSH2 0x9E9 JUMP JUMPDEST SWAP1 DUP2 MSTORE PUSH1 0x20 ADD PUSH1 0x40 MLOAD DUP1 SWAP2 SUB SWAP1 KECCAK256 PUSH0 PUSH2 0x100 EXP DUP2 SLOAD DUP2 PUSH1 0xFF MUL NOT AND SWAP1 DUP4 PUSH1 0xFF AND MUL OR SWAP1 SSTORE POP POP POP POP JUMP JUMPDEST PUSH1 0x2 DUP2 DUP1 MLOAD PUSH1 0x20 DUP2 ADD DUP3 ADD DUP1 MLOAD DUP5 DUP3 MSTORE PUSH1 0x20 DUP4 ADD PUSH1 0x20 DUP6 ADD KECCAK256 DUP2 DUP4 MSTORE DUP1 SWAP6 POP POP POP POP POP POP PUSH0 SWAP2 POP SLOAD SWAP1 PUSH2 0x100 EXP SWAP1 DIV PUSH1 0xFF AND DUP2 JUMP JUMPDEST PUSH0 PUSH1 0xFF DUP3 AND SWAP1 POP SWAP2 SWAP1 POP JUMP JUMPDEST PUSH2 0x341 DUP2 PUSH2 0x32C JUMP JUMPDEST DUP3 MSTORE POP POP JUMP JUMPDEST PUSH0 PUSH1 0x20 DUP3 ADD SWAP1 POP PUSH2 0x35A PUSH0 DUP4 ADD DUP5 PUSH2 0x338 JUMP JUMPDEST SWAP3 SWAP2 POP POP JUMP JUMPDEST PUSH0 PUSH1 0x40 MLOAD SWAP1 POP SWAP1 JUMP JUMPDEST PUSH0 PUSH0 REVERT JUMPDEST PUSH0 PUSH0 REVERT JUMPDEST PUSH0 DUP2 SWAP1 POP SWAP2 SWAP1 POP JUMP JUMPDEST PUSH2 0x383 DUP2 PUSH2 0x371 JUMP JUMPDEST DUP2 EQ PUSH2 0x38D JUMPI PUSH0 PUSH0 REVERT JUMPDEST POP JUMP JUMPDEST PUSH0 DUP2 CALLDATALOAD SWAP1 POP PUSH2 0x39E DUP2 PUSH2 0x37A JUMP JUMPDEST SWAP3 SWAP2 POP POP JUMP JUMPDEST PUSH0 PUSH1 0x20 DUP3 DUP5 SUB SLT ISZERO PUSH2 0x3B9 JUMPI PUSH2 0x3B8 PUSH2 0x369 JUMP JUMPDEST JUMPDEST PUSH0 PUSH2 0x3C6 DUP5 DUP3 DUP6 ADD PUSH2 0x390 JUMP JUMPDEST SWAP2 POP POP SWAP3 SWAP2 POP POP JUMP JUMPDEST PUSH0 DUP2 MLOAD SWAP1 POP SWAP2 SWAP1 POP JUMP JUMPDEST PUSH0 DUP3 DUP3 MSTORE PUSH1 0x20 DUP3 ADD SWAP1 POP SWAP3 SWAP2 POP POP JUMP JUMPDEST DUP3 DUP2 DUP4 MCOPY PUSH0 DUP4 DUP4 ADD MSTORE POP POP POP JUMP JUMPDEST PUSH0 PUSH1 0x1F NOT PUSH1 0x1F DUP4 ADD AND SWAP1 POP SWAP2 SWAP1 POP JUMP JUMPDEST PUSH0 PUSH2 0x411 DUP3 PUSH2 0x3CF JUMP JUMPDEST PUSH2 0x41B DUP2 DUP6 PUSH2 0x3D9 JUMP JUMPDEST SWAP4 POP PUSH2 0x42B DUP2 DUP6 PUSH1 0x20 DUP7 ADD PUSH2 0x3E9 JUMP JUMPDEST PUSH2 0x434 DUP2 PUSH2 0x3F7 JUMP JUMPDEST DUP5 ADD SWAP2 POP POP SWAP3 SWAP2 POP POP JUMP JUMPDEST PUSH0 PUSH1 0x40 DUP3 ADD SWAP1 POP DUP2 DUP2 SUB PUSH0 DUP4 ADD MSTORE PUSH2 0x457 DUP2 DUP6 PUSH2 0x407 JUMP JUMPDEST SWAP1 POP PUSH2 0x466 PUSH1 0x20 DUP4 ADD DUP5 PUSH2 0x338 JUMP JUMPDEST SWAP4 SWAP3 POP POP POP JUMP JUMPDEST PUSH2 0x476 DUP2 PUSH2 0x32C JUMP JUMPDEST DUP2 EQ PUSH2 0x480 JUMPI PUSH0 PUSH0 REVERT JUMPDEST POP JUMP JUMPDEST PUSH0 DUP2 CALLDATALOAD SWAP1 POP PUSH2 0x491 DUP2 PUSH2 0x46D JUMP JUMPDEST SWAP3 SWAP2 POP POP JUMP JUMPDEST PUSH0 PUSH1 0x20 DUP3 DUP5 SUB SLT ISZERO PUSH2 0x4AC JUMPI PUSH2 0x4AB PUSH2 0x369 JUMP JUMPDEST JUMPDEST PUSH0 PUSH2 0x4B9 DUP5 DUP3 DUP6 ADD PUSH2 0x483 JUMP JUMPDEST SWAP2 POP POP SWAP3 SWAP2 POP POP JUMP JUMPDEST PUSH0 PUSH0 REVERT JUMPDEST PUSH0 PUSH0 REVERT JUMPDEST PUSH0 PUSH0 REVERT JUMPDEST PUSH0 PUSH0 DUP4 PUSH1 0x1F DUP5 ADD SLT PUSH2 0x4E3 JUMPI PUSH2 0x4E2 PUSH2 0x4C2 JUMP JUMPDEST JUMPDEST DUP3 CALLDATALOAD SWAP1 POP PUSH8 0xFFFFFFFFFFFFFFFF DUP2 GT ISZERO PUSH2 0x500 JUMPI PUSH2 0x4FF PUSH2 0x4C6 JUMP JUMPDEST JUMPDEST PUSH1 0x20 DUP4 ADD SWAP2 POP DUP4 PUSH1 0x1 DUP3 MUL DUP4 ADD GT ISZERO PUSH2 0x51C JUMPI PUSH2 0x51B PUSH2 0x4CA JUMP JUMPDEST JUMPDEST SWAP3 POP SWAP3 SWAP1 POP JUMP JUMPDEST PUSH0 PUSH0 PUSH0 PUSH1 0x40 DUP5 DUP7 SUB SLT ISZERO PUSH2 0x53A JUMPI PUSH2 0x539 PUSH2 0x369 JUMP JUMPDEST JUMPDEST PUSH0 DUP5 ADD CALLDATALOAD PUSH8 0xFFFFFFFFFFFFFFFF DUP2 GT ISZERO PUSH2 0x557 JUMPI PUSH2 0x556 PUSH2 0x36D JUMP JUMPDEST JUMPDEST PUSH2 0x563 DUP7 DUP3 DUP8 ADD PUSH2 0x4CE JUMP JUMPDEST SWAP4 POP SWAP4 POP POP PUSH1 0x20 PUSH2 0x576 DUP7 DUP3 DUP8 ADD PUSH2 0x483 JUMP JUMPDEST SWAP2 POP POP SWAP3 POP SWAP3 POP SWAP3 JUMP JUMPDEST PUSH0 PUSH0 REVERT JUMPDEST PUSH32 0x4E487B7100000000000000000000000000000000000000000000000000000000 PUSH0 MSTORE PUSH1 0x41 PUSH1 0x4 MSTORE PUSH1 0x24 PUSH0 REVERT JUMPDEST PUSH2 0x5BA DUP3 PUSH2 0x3F7 JUMP JUMPDEST DUP2 ADD DUP2 DUP2 LT PUSH8 0xFFFFFFFFFFFFFFFF DUP3 GT OR ISZERO PUSH2 0x5D9 JUMPI PUSH2 0x5D8 PUSH2 0x584 JUMP JUMPDEST JUMPDEST DUP1 PUSH1 0x40 MSTORE POP POP POP JUMP JUMPDEST PUSH0 PUSH2 0x5EB PUSH2 0x360 JUMP JUMPDEST SWAP1 POP PUSH2 0x5F7 DUP3 DUP3 PUSH2 0x5B1 JUMP JUMPDEST SWAP2 SWAP1 POP JUMP JUMPDEST PUSH0 PUSH8 0xFFFFFFFFFFFFFFFF DUP3 GT ISZERO PUSH2 0x616 JUMPI PUSH2 0x615 PUSH2 0x584 JUMP JUMPDEST JUMPDEST PUSH2 0x61F DUP3 PUSH2 0x3F7 JUMP JUMPDEST SWAP1 POP PUSH1 0x20 DUP2 ADD SWAP1 POP SWAP2 SWAP1 POP JUMP JUMPDEST DUP3 DUP2 DUP4 CALLDATACOPY PUSH0 DUP4 DUP4 ADD MSTORE POP POP POP JUMP JUMPDEST PUSH0 PUSH2 0x64C PUSH2 0x647 DUP5 PUSH2 0x5FC JUMP JUMPDEST PUSH2 0x5E2 JUMP JUMPDEST SWAP1 POP DUP3 DUP2 MSTORE PUSH1 0x20 DUP2 ADD DUP5 DUP5 DUP5 ADD GT ISZERO PUSH2 0x668 JUMPI PUSH2 0x667 PUSH2 0x580 JUMP JUMPDEST JUMPDEST PUSH2 0x673 DUP5 DUP3 DUP6 PUSH2 0x62C JUMP JUMPDEST POP SWAP4 SWAP3 POP POP POP JUMP JUMPDEST PUSH0 DUP3 PUSH1 0x1F DUP4 ADD SLT PUSH2 0x68F JUMPI PUSH2 0x68E PUSH2 0x4C2 JUMP JUMPDEST JUMPDEST DUP2 CALLDATALOAD PUSH2 0x69F DUP5 DUP3 PUSH1 0x20 DUP7 ADD PUSH2 0x63A JUMP JUMPDEST SWAP2 POP POP SWAP3 SWAP2 POP POP JUMP JUMPDEST PUSH0 PUSH1 0x20 DUP3 DUP5 SUB SLT ISZERO PUSH2 0x6BD JUMPI PUSH2 0x6BC PUSH2 0x369 JUMP JUMPDEST JUMPDEST PUSH0 DUP3 ADD CALLDATALOAD PUSH8 0xFFFFFFFFFFFFFFFF DUP2 GT ISZERO PUSH2 0x6DA JUMPI PUSH2 0x6D9 PUSH2 0x36D JUMP JUMPDEST JUMPDEST PUSH2 0x6E6 DUP5 DUP3 DUP6 ADD PUSH2 0x67B JUMP JUMPDEST SWAP2 POP POP SWAP3 SWAP2 POP POP JUMP JUMPDEST PUSH32 0x4E487B7100000000000000000000000000000000000000000000000000000000 PUSH0 MSTORE PUSH1 0x22 PUSH1 0x4 MSTORE PUSH1 0x24 PUSH0 REVERT JUMPDEST PUSH0 PUSH1 0x2 DUP3 DIV SWAP1 POP PUSH1 0x1 DUP3 AND DUP1 PUSH2 0x733 JUMPI PUSH1 0x7F DUP3 AND SWAP2 POP JUMPDEST PUSH1 0x20 DUP3 LT DUP2 SUB PUSH2 0x746 JUMPI PUSH2 0x745 PUSH2 0x6EF JUMP JUMPDEST JUMPDEST POP SWAP2 SWAP1 POP JUMP JUMPDEST PUSH0 DUP2 SWAP1 POP DUP2 PUSH0 MSTORE PUSH1 0x20 PUSH0 KECCAK256 SWAP1 POP SWAP2 SWAP1 POP JUMP JUMPDEST PUSH0 PUSH1 0x20 PUSH1 0x1F DUP4 ADD DIV SWAP1 POP SWAP2 SWAP1 POP JUMP JUMPDEST PUSH0 DUP3 DUP3 SHL SWAP1 POP SWAP3 SWAP2 POP POP JUMP JUMPDEST PUSH0 PUSH1 0x8 DUP4 MUL PUSH2 0x7A8 PUSH32 0xFFFFFFFFFFFFFFFFFFFFFFFFFFFFFFFFFFFFFFFFFFFFFFFFFFFFFFFFFFFFFFFF DUP3 PUSH2 0x76D JUMP JUMPDEST PUSH2 0x7B2 DUP7 DUP4 PUSH2 0x76D JUMP JUMPDEST SWAP6 POP DUP1 NOT DUP5 AND SWAP4 POP DUP1 DUP7 AND DUP5 OR SWAP3 POP POP POP SWAP4 SWAP3 POP POP POP JUMP JUMPDEST PUSH0 DUP2 SWAP1 POP SWAP2 SWAP1 POP JUMP JUMPDEST PUSH0 PUSH2 0x7ED PUSH2 0x7E8 PUSH2 0x7E3 DUP5 PUSH2 0x371 JUMP JUMPDEST PUSH2 0x7CA JUMP JUMPDEST PUSH2 0x371 JUMP JUMPDEST SWAP1 POP SWAP2 SWAP1 POP JUMP JUMPDEST PUSH0 DUP2 SWAP1 POP SWAP2 SWAP1 POP JUMP JUMPDEST PUSH2 0x806 DUP4 PUSH2 0x7D3 JUMP JUMPDEST PUSH2 0x81A PUSH2 0x812 DUP3 PUSH2 0x7F4 JUMP JUMPDEST DUP5 DUP5 SLOAD PUSH2 0x779 JUMP JUMPDEST DUP3 SSTORE POP POP POP POP JUMP JUMPDEST PUSH0 PUSH0 SWAP1 POP SWAP1 JUMP JUMPDEST PUSH2 0x831 PUSH2 0x822 JUMP JUMPDEST PUSH2 0x83C DUP2 DUP5 DUP5 PUSH2 0x7FD JUMP JUMPDEST POP POP POP JUMP JUMPDEST JUMPDEST DUP2 DUP2 LT ISZERO PUSH2 0x85F JUMPI PUSH2 0x854 PUSH0 DUP3 PUSH2 0x829 JUMP JUMPDEST PUSH1 0x1 DUP2 ADD SWAP1 POP PUSH2 0x842 JUMP JUMPDEST POP POP JUMP JUMPDEST PUSH1 0x1F DUP3 GT ISZERO PUSH2 0x8A4 JUMPI PUSH2 0x875 DUP2 PUSH2 0x74C JUMP JUMPDEST PUSH2 0x87E DUP5 PUSH2 0x75E JUMP JUMPDEST DUP2 ADD PUSH1 0x20 DUP6 LT ISZERO PUSH2 0x88D JUMPI DUP2 SWAP1 POP JUMPDEST PUSH2 0x8A1 PUSH2 0x899 DUP6 PUSH2 0x75E JUMP JUMPDEST DUP4 ADD DUP3 PUSH2 0x841 JUMP JUMPDEST POP POP JUMPDEST POP POP POP JUMP JUMPDEST PUSH0 DUP3 DUP3 SHR SWAP1 POP SWAP3 SWAP2 POP POP JUMP JUMPDEST PUSH0 PUSH2 0x8C4 PUSH0 NOT DUP5 PUSH1 0x8 MUL PUSH2 0x8A9 JUMP JUMPDEST NOT DUP1 DUP4 AND SWAP2 POP POP SWAP3 SWAP2 POP POP JUMP JUMPDEST PUSH0 PUSH2 0x8DC DUP4 DUP4 PUSH2 0x8B5 JUMP JUMPDEST SWAP2 POP DUP3 PUSH1 0x2 MUL DUP3 OR SWAP1 POP SWAP3 SWAP2 POP POP JUMP JUMPDEST PUSH2 0x8F5 DUP3 PUSH2 0x3CF JUMP JUMPDEST PUSH8 0xFFFFFFFFFFFFFFFF DUP2 GT ISZERO PUSH2 0x90E JUMPI PUSH2 0x90D PUSH2 0x584 JUMP JUMPDEST JUMPDEST PUSH2 0x918 DUP3 SLOAD PUSH2 0x71C JUMP JUMPDEST PUSH2 0x923 DUP3 DUP3 DUP6 PUSH2 0x863 JUMP JUMPDEST PUSH0 PUSH1 0x20 SWAP1 POP PUSH1 0x1F DUP4 GT PUSH1 0x1 DUP2 EQ PUSH2 0x954 JUMPI PUSH0 DUP5 ISZERO PUSH2 0x942 JUMPI DUP3 DUP8 ADD MLOAD SWAP1 POP JUMPDEST PUSH2 0x94C DUP6 DUP3 PUSH2 0x8D1 JUMP JUMPDEST DUP7 SSTORE POP PUSH2 0x9B3 JUMP JUMPDEST PUSH1 0x1F NOT DUP5 AND PUSH2 0x962 DUP7 PUSH2 0x74C JUMP JUMPDEST PUSH0 JUMPDEST DUP3 DUP2 LT ISZERO PUSH2 0x989 JUMPI DUP5 DUP10 ADD MLOAD DUP3 SSTORE PUSH1 0x1 DUP3 ADD SWAP2 POP PUSH1 0x20 DUP6 ADD SWAP5 POP PUSH1 0x20 DUP2 ADD SWAP1 POP PUSH2 0x964 JUMP JUMPDEST DUP7 DUP4 LT ISZERO PUSH2 0x9A6 JUMPI DUP5 DUP10 ADD MLOAD PUSH2 0x9A2 PUSH1 0x1F DUP10 AND DUP3 PUSH2 0x8B5 JUMP JUMPDEST DUP4 SSTORE POP JUMPDEST PUSH1 0x1 PUSH1 0x2 DUP9 MUL ADD DUP9 SSTORE POP POP POP JUMPDEST POP POP POP POP POP POP JUMP JUMPDEST PUSH0 DUP2 SWAP1 POP SWAP3 SWAP2 POP POP JUMP JUMPDEST PUSH0 PUSH2 0x9D0 DUP4 DUP6 PUSH2 0x9BB JUMP JUMPDEST SWAP4 POP PUSH2 0x9DD DUP4 DUP6 DUP5 PUSH2 0x62C JUMP JUMPDEST DUP3 DUP5 ADD SWAP1 POP SWAP4 SWAP3 POP POP POP JUMP JUMPDEST PUSH0 PUSH2 0x9F5 DUP3 DUP5 DUP7 PUSH2 0x9C5 JUMP JUMPDEST SWAP2 POP DUP2 SWAP1 POP SWAP4 SWAP3 POP POP POP JUMP INVALID LOG2 PUSH5 0x6970667358 0x22 SLT KECCAK256 0xEB 0xD3 PUSH32 0xBA9062878C2F80BC4A4198D9FFEA5A4BDBA861E47E65C63D951F294364736F PUSH13 0x634300081E0033000000000000 "
		},
		"gasEstimates": {
			"creation": {
				"codeDepositCost": "523000",
				"executionCost": "554",
				"totalCost": "523554"
			},
			"external": {
				"addPerson(string,uint8)": "infinite",
				"listOfPeople(uint256)": "infinite",
				"nameToFavoriteNumber(string)": "infinite",
				"retrieve()": "2450",
				"store(uint8)": "24694"
			}
		},
		"methodIdentifiers": {
			"addPerson(string,uint8)": "57322f09",
			"listOfPeople(uint256)": "2ebce631",
			"nameToFavoriteNumber(string)": "8bab8dd5",
			"retrieve()": "2e64cec1",
			"store(uint8)": "3bc862c7"
		}
	},
	"abi": [
		{
			"inputs": [
				{
					"internalType": "string",
					"name": "_name",
					"type": "string"
				},
				{
					"internalType": "uint8",
					"name": "_favoriteNumber",
					"type": "uint8"
				}
			],
			"name": "addPerson",
			"outputs": [],
			"stateMutability": "nonpayable",
			"type": "function"
		},
		{
			"inputs": [
				{
					"internalType": "uint256",
					"name": "",
					"type": "uint256"
				}
			],
			"name": "listOfPeople",
			"outputs": [
				{
					"internalType": "string",
					"name": "name",
					"type": "string"
				},
				{
					"internalType": "uint8",
					"name": "favoriteNumber",
					"type": "uint8"
				}
			],
			"stateMutability": "view",
			"type": "function"
		},
		{
			"inputs": [
				{
					"internalType": "string",
					"name": "",
					"type": "string"
				}
			],
			"name": "nameToFavoriteNumber",
			"outputs": [
				{
					"internalType": "uint8",
					"name": "",
					"type": "uint8"
				}
			],
			"stateMutability": "view",
			"type": "function"
		},
		{
			"inputs": [],
			"name": "retrieve",
			"outputs": [
				{
					"internalType": "uint8",
					"name": "",
					"type": "uint8"
				}
			],
			"stateMutability": "view",
			"type": "function"
		},
		{
			"inputs": [
				{
					"internalType": "uint8",
					"name": "_favoriteNumber",
					"type": "uint8"
				}
			],
			"name": "store",
			"outputs": [],
			"stateMutability": "nonpayable",
			"type": "function"
		}
	]
}